{
  "_format": "hh-sol-artifact-1",
  "contractName": "RideEscrow",
  "sourceName": "contracts/RideEscrow.sol",
  "abi": [
    {
      "inputs": [],
      "stateMutability": "nonpayable",
      "type": "constructor"
    },
    {
      "anonymous": false,
      "inputs": [
        {
          "indexed": true,
          "internalType": "bytes32",
          "name": "rideId",
          "type": "bytes32"
        },
        {
          "indexed": true,
          "internalType": "address",
          "name": "raisedBy",
          "type": "address"
        },
        {
          "indexed": false,
          "internalType": "uint256",
          "name": "timestamp",
          "type": "uint256"
        }
      ],
      "name": "DisputeRaised",
      "type": "event"
    },
    {
      "anonymous": false,
      "inputs": [
        {
          "indexed": true,
          "internalType": "bytes32",
          "name": "rideId",
          "type": "bytes32"
        },
        {
          "indexed": true,
          "internalType": "address",
          "name": "resolvedBy",
          "type": "address"
        },
        {
          "indexed": false,
          "internalType": "address",
          "name": "winner",
          "type": "address"
        },
        {
          "indexed": false,
          "internalType": "uint256",
          "name": "timestamp",
          "type": "uint256"
        }
      ],
      "name": "DisputeResolved",
      "type": "event"
    },
    {
      "anonymous": false,
      "inputs": [
        {
          "indexed": true,
          "internalType": "bytes32",
          "name": "rideId",
          "type": "bytes32"
        },
        {
          "indexed": true,
          "internalType": "address",
          "name": "driver",
          "type": "address"
        },
        {
          "indexed": false,
          "internalType": "uint256",
          "name": "timestamp",
          "type": "uint256"
        }
      ],
      "name": "RideAccepted",
      "type": "event"
    },
    {
      "anonymous": false,
      "inputs": [
        {
          "indexed": true,
          "internalType": "bytes32",
          "name": "rideId",
          "type": "bytes32"
        },
        {
          "indexed": true,
          "internalType": "address",
          "name": "cancelledBy",
          "type": "address"
        },
        {
          "indexed": false,
          "internalType": "uint256",
          "name": "refundAmount",
          "type": "uint256"
        },
        {
          "indexed": false,
          "internalType": "uint256",
          "name": "timestamp",
          "type": "uint256"
        }
      ],
      "name": "RideCancelled",
      "type": "event"
    },
    {
      "anonymous": false,
      "inputs": [
        {
          "indexed": true,
          "internalType": "bytes32",
          "name": "rideId",
          "type": "bytes32"
        },
        {
          "indexed": true,
          "internalType": "address",
          "name": "driver",
          "type": "address"
        },
        {
          "indexed": false,
          "internalType": "uint256",
          "name": "fareReleased",
          "type": "uint256"
        },
        {
          "indexed": false,
          "internalType": "uint256",
          "name": "platformFee",
          "type": "uint256"
        },
        {
          "indexed": false,
          "internalType": "uint256",
          "name": "timestamp",
          "type": "uint256"
        }
      ],
      "name": "RideCompleted",
      "type": "event"
    },
    {
      "anonymous": false,
      "inputs": [
        {
          "indexed": true,
          "internalType": "bytes32",
          "name": "rideId",
          "type": "bytes32"
        },
        {
          "indexed": true,
          "internalType": "address",
          "name": "rider",
          "type": "address"
        },
        {
          "indexed": false,
          "internalType": "uint256",
          "name": "fare",
          "type": "uint256"
        },
        {
          "indexed": false,
          "internalType": "uint256",
          "name": "timestamp",
          "type": "uint256"
        }
      ],
      "name": "RideCreated",
      "type": "event"
    },
    {
      "anonymous": false,
      "inputs": [
        {
          "indexed": true,
          "internalType": "bytes32",
          "name": "rideId",
          "type": "bytes32"
        },
        {
          "indexed": false,
          "internalType": "uint256",
          "name": "timestamp",
          "type": "uint256"
        }
      ],
      "name": "RideStarted",
      "type": "event"
    },
    {
      "inputs": [
        {
          "internalType": "bytes32",
          "name": "rideId",
          "type": "bytes32"
        }
      ],
      "name": "acceptRide",
      "outputs": [],
      "stateMutability": "nonpayable",
      "type": "function"
    },
    {
      "inputs": [
        {
          "internalType": "bytes32",
          "name": "rideId",
          "type": "bytes32"
        }
      ],
      "name": "cancelRide",
      "outputs": [],
      "stateMutability": "nonpayable",
      "type": "function"
    },
    {
      "inputs": [
        {
          "internalType": "bytes32",
          "name": "rideId",
          "type": "bytes32"
        }
      ],
      "name": "completeRide",
      "outputs": [],
      "stateMutability": "nonpayable",
      "type": "function"
    },
    {
      "inputs": [
        {
          "internalType": "bytes32",
          "name": "rideId",
          "type": "bytes32"
        },
        {
          "internalType": "string",
          "name": "pickupHash",
          "type": "string"
        },
        {
          "internalType": "string",
          "name": "dropHash",
          "type": "string"
        }
      ],
      "name": "createRide",
      "outputs": [],
      "stateMutability": "payable",
      "type": "function"
    },
    {
      "inputs": [
        {
          "internalType": "address",
          "name": "",
          "type": "address"
        },
        {
          "internalType": "uint256",
          "name": "",
          "type": "uint256"
        }
      ],
      "name": "driverRides",
      "outputs": [
        {
          "internalType": "bytes32",
          "name": "",
          "type": "bytes32"
        }
      ],
      "stateMutability": "view",
      "type": "function"
    },
    {
      "inputs": [],
      "name": "getContractBalance",
      "outputs": [
        {
          "internalType": "uint256",
          "name": "",
          "type": "uint256"
        }
      ],
      "stateMutability": "view",
      "type": "function"
    },
    {
      "inputs": [
        {
          "internalType": "address",
          "name": "driver",
          "type": "address"
        }
      ],
      "name": "getDriverRides",
      "outputs": [
        {
          "internalType": "bytes32[]",
          "name": "",
          "type": "bytes32[]"
        }
      ],
      "stateMutability": "view",
      "type": "function"
    },
    {
      "inputs": [],
      "name": "getPlatformStats",
      "outputs": [
        {
          "internalType": "uint256",
          "name": "totalRides",
          "type": "uint256"
        },
        {
          "internalType": "uint256",
          "name": "completedRides",
          "type": "uint256"
        },
        {
          "internalType": "uint256",
          "name": "platformEarnings",
          "type": "uint256"
        },
        {
          "internalType": "uint256",
          "name": "contractBalance",
          "type": "uint256"
        }
      ],
      "stateMutability": "view",
      "type": "function"
    },
    {
      "inputs": [
        {
          "internalType": "bytes32",
          "name": "rideId",
          "type": "bytes32"
        }
      ],
      "name": "getRide",
      "outputs": [
        {
          "components": [
            {
              "internalType": "bytes32",
              "name": "rideId",
              "type": "bytes32"
            },
            {
              "internalType": "address payable",
              "name": "rider",
              "type": "address"
            },
            {
              "internalType": "address payable",
              "name": "driver",
              "type": "address"
            },
            {
              "internalType": "uint256",
              "name": "fare",
              "type": "uint256"
            },
            {
              "internalType": "uint256",
              "name": "platformFee",
              "type": "uint256"
            },
            {
              "internalType": "uint256",
              "name": "createdAt",
              "type": "uint256"
            },
            {
              "internalType": "uint256",
              "name": "acceptedAt",
              "type": "uint256"
            },
            {
              "internalType": "uint256",
              "name": "completedAt",
              "type": "uint256"
            },
            {
              "internalType": "string",
              "name": "pickupHash",
              "type": "string"
            },
            {
              "internalType": "string",
              "name": "dropHash",
              "type": "string"
            },
            {
              "internalType": "enum RideEscrow.RideStatus",
              "name": "status",
              "type": "uint8"
            }
          ],
          "internalType": "struct RideEscrow.Ride",
          "name": "",
          "type": "tuple"
        }
      ],
      "stateMutability": "view",
      "type": "function"
    },
    {
      "inputs": [
        {
          "internalType": "address",
          "name": "rider",
          "type": "address"
        }
      ],
      "name": "getRiderRides",
      "outputs": [
        {
          "internalType": "bytes32[]",
          "name": "",
          "type": "bytes32[]"
        }
      ],
      "stateMutability": "view",
      "type": "function"
    },
    {
      "inputs": [],
      "name": "owner",
      "outputs": [
        {
          "internalType": "address",
          "name": "",
          "type": "address"
        }
      ],
      "stateMutability": "view",
      "type": "function"
    },
    {
      "inputs": [],
      "name": "platformFeePercent",
      "outputs": [
        {
          "internalType": "uint256",
          "name": "",
          "type": "uint256"
        }
      ],
      "stateMutability": "view",
      "type": "function"
    },
    {
      "inputs": [
        {
          "internalType": "bytes32",
          "name": "rideId",
          "type": "bytes32"
        }
      ],
      "name": "raiseDispute",
      "outputs": [],
      "stateMutability": "nonpayable",
      "type": "function"
    },
    {
      "inputs": [
        {
          "internalType": "bytes32",
          "name": "rideId",
          "type": "bytes32"
        },
        {
          "internalType": "bool",
          "name": "favorRider",
          "type": "bool"
        }
      ],
      "name": "resolveDispute",
      "outputs": [],
      "stateMutability": "nonpayable",
      "type": "function"
    },
    {
      "inputs": [
        {
          "internalType": "address",
          "name": "",
          "type": "address"
        },
        {
          "internalType": "uint256",
          "name": "",
          "type": "uint256"
        }
      ],
      "name": "riderRides",
      "outputs": [
        {
          "internalType": "bytes32",
          "name": "",
          "type": "bytes32"
        }
      ],
      "stateMutability": "view",
      "type": "function"
    },
    {
      "inputs": [
        {
          "internalType": "bytes32",
          "name": "",
          "type": "bytes32"
        }
      ],
      "name": "rides",
      "outputs": [
        {
          "internalType": "bytes32",
          "name": "rideId",
          "type": "bytes32"
        },
        {
          "internalType": "address payable",
          "name": "rider",
          "type": "address"
        },
        {
          "internalType": "address payable",
          "name": "driver",
          "type": "address"
        },
        {
          "internalType": "uint256",
          "name": "fare",
          "type": "uint256"
        },
        {
          "internalType": "uint256",
          "name": "platformFee",
          "type": "uint256"
        },
        {
          "internalType": "uint256",
          "name": "createdAt",
          "type": "uint256"
        },
        {
          "internalType": "uint256",
          "name": "acceptedAt",
          "type": "uint256"
        },
        {
          "internalType": "uint256",
          "name": "completedAt",
          "type": "uint256"
        },
        {
          "internalType": "string",
          "name": "pickupHash",
          "type": "string"
        },
        {
          "internalType": "string",
          "name": "dropHash",
          "type": "string"
        },
        {
          "internalType": "enum RideEscrow.RideStatus",
          "name": "status",
          "type": "uint8"
        }
      ],
      "stateMutability": "view",
      "type": "function"
    },
    {
      "inputs": [
        {
          "internalType": "bytes32",
          "name": "rideId",
          "type": "bytes32"
        }
      ],
      "name": "startRide",
      "outputs": [],
      "stateMutability": "nonpayable",
      "type": "function"
    },
    {
      "inputs": [],
      "name": "totalPlatformEarnings",
      "outputs": [
        {
          "internalType": "uint256",
          "name": "",
          "type": "uint256"
        }
      ],
      "stateMutability": "view",
      "type": "function"
    },
    {
      "inputs": [],
      "name": "totalRidesCompleted",
      "outputs": [
        {
          "internalType": "uint256",
          "name": "",
          "type": "uint256"
        }
      ],
      "stateMutability": "view",
      "type": "function"
    },
    {
      "inputs": [],
      "name": "totalRidesCreated",
      "outputs": [
        {
          "internalType": "uint256",
          "name": "",
          "type": "uint256"
        }
      ],
      "stateMutability": "view",
      "type": "function"
    },
    {
      "inputs": [
        {
          "internalType": "uint256",
          "name": "newFeePercent",
          "type": "uint256"
        }
      ],
      "name": "updatePlatformFee",
      "outputs": [],
      "stateMutability": "nonpayable",
      "type": "function"
    },
    {
      "inputs": [],
      "name": "withdrawPlatformFees",
      "outputs": [],
      "stateMutability": "nonpayable",
      "type": "function"
    }
  ],
  "bytecode": "0x6080604052600560015534801561001557600080fd5b50600080546001600160a01b03191633179055612011806100376000396000f3fe6080604052600436106101355760003560e01c8063a89a4ec5116100ab578063cb330f831161006f578063cb330f831461036a578063d0b7830b14610380578063d10bb9b514610395578063e14f5b7d146103c2578063e7e92e2a146103e2578063ea837acf1461040257600080fd5b8063a89a4ec5146102de578063aa0b5988146102f4578063b079dae114610314578063b684f7bc14610334578063bfa4c5c11461035457600080fd5b806343a0e3e6116100fd57806343a0e3e6146102105780636f9fb98a146102305780636fad7170146102435780638c639a85146102705780638da5cb5b14610286578063a1371cc0146102be57600080fd5b8063136d88831461013a57806325c9948314610176578063358d588c146101ad5780633fcf6359146101db578063424f32c5146101fd575b600080fd5b34801561014657600080fd5b50600354600454600254476040805194855260208501939093529183015260608201526080015b60405180910390f35b34801561018257600080fd5b506101966101913660046119f9565b610422565b60405161016d9b9a99989796959493929190611a90565b3480156101b957600080fd5b506101cd6101c8366004611b33565b61059b565b60405190815260200161016d565b3480156101e757600080fd5b506101fb6101f63660046119f9565b6105cc565b005b6101fb61020b366004611ba6565b610740565b34801561021c57600080fd5b506101fb61022b366004611c20565b610abe565b34801561023c57600080fd5b50476101cd565b34801561024f57600080fd5b5061026361025e3660046119f9565b610d10565b60405161016d9190611c55565b34801561027c57600080fd5b506101cd60015481565b34801561029257600080fd5b506000546102a6906001600160a01b031681565b6040516001600160a01b03909116815260200161016d565b3480156102ca57600080fd5b506101fb6102d93660046119f9565b610ef3565b3480156102ea57600080fd5b506101cd60045481565b34801561030057600080fd5b506101fb61030f3660046119f9565b611168565b34801561032057600080fd5b506101cd61032f366004611b33565b6111e0565b34801561034057600080fd5b506101fb61034f3660046119f9565b6111fc565b34801561036057600080fd5b506101cd60025481565b34801561037657600080fd5b506101cd60035481565b34801561038c57600080fd5b506101fb611458565b3480156103a157600080fd5b506103b56103b0366004611d26565b611568565b60405161016d9190611d48565b3480156103ce57600080fd5b506101fb6103dd3660046119f9565b6115d4565b3480156103ee57600080fd5b506101fb6103fd3660046119f9565b61176a565b34801561040e57600080fd5b506103b561041d366004611d26565b611910565b600560208190526000918252604090912080546001820154600283015460038401546004850154958501546006860154600787015460088801805497996001600160a01b03978816999790961697949693949293919261048190611d8c565b80601f01602080910402602001604051908101604052809291908181526020018280546104ad90611d8c565b80156104fa5780601f106104cf576101008083540402835291602001916104fa565b820191906000526020600020905b8154815290600101906020018083116104dd57829003601f168201915b50505050509080600901805461050f90611d8c565b80601f016020809104026020016040519081016040528092919081815260200182805461053b90611d8c565b80156105885780601f1061055d57610100808354040283529160200191610588565b820191906000526020600020905b81548152906001019060200180831161056b57829003601f168201915b505050600a909301549192505060ff168b565b600660205281600052604060002081815481106105b757600080fd5b90600052602060002001600091509150505481565b80600080828152600560205260409020600a015460ff1660068111156105f4576105f4611a58565b0361061a5760405162461bcd60e51b815260040161061190611dc6565b60405180910390fd5b60008281526005602052604090206002015482906001600160a01b031633146106805760405162461bcd60e51b815260206004820152601860248201527727b7363c903a34329030b9b9b4b3b732b210323934bb32b960411b6044820152606401610611565b60008381526005602052604090206002600a82015460ff1660068111156106a9576106a9611a58565b146106f65760405162461bcd60e51b815260206004820152601a60248201527f52696465206e6f7420696e2041434345505445442073746174650000000000006044820152606401610611565b600a8101805460ff1916600317905560405142815284907fe4a0f94fb39654f258fcc5c4e9dddf656d1627ad389fa16b29a852ae9e1529cc9060200160405180910390a250505050565b600034116107905760405162461bcd60e51b815260206004820152601b60248201527f46617265206d7573742062652067726561746572207468616e203000000000006044820152606401610611565b6000858152600560205260408120600a015460ff1660068111156107b6576107b6611a58565b146107fc5760405162461bcd60e51b81526020600482015260166024820152755269646520494420616c72656164792065786973747360501b6044820152606401610611565b826108405760405162461bcd60e51b8152602060048201526014602482015273141a58dadd5c081a185cda081c995c5d5a5c995960621b6044820152606401610611565b806108825760405162461bcd60e51b8152602060048201526012602482015271111c9bdc081a185cda081c995c5d5a5c995960721b6044820152606401610611565b60006064600154346108949190611e09565b61089e9190611e26565b9050604051806101600160405280878152602001336001600160a01b0316815260200160006001600160a01b03168152602001348152602001828152602001428152602001600081526020016000815260200186868080601f016020809104026020016040519081016040528093929190818152602001838380828437600092019190915250505090825250604080516020601f8701819004810282018101909252858152918101919086908690819084018382808284376000920191909152505050908252506020016001905260008781526005602081815260409283902084518155908401516001820180546001600160a01b03199081166001600160a01b039384161790915593850151600283018054909516911617909255606083015160038301556080830151600483015560a08301519082015560c0820151600682015560e082015160078201556101008201516008820190610a009082611eaf565b506101208201516009820190610a169082611eaf565b50610140820151600a8201805460ff19166001836006811115610a3b57610a3b611a58565b021790555050336000908152600660209081526040822080546001810182559083529082200188905560038054925090610a7483611f6f565b909155505060408051348152426020820152339188917f2ecc20be610c41f9ae1ff617bd16c54a227515928d2d6bee8b3e96cc451c4ef391015b60405180910390a3505050505050565b6000546001600160a01b03163314610ae85760405162461bcd60e51b815260040161061190611f88565b81600080828152600560205260409020600a015460ff166006811115610b1057610b10611a58565b03610b2d5760405162461bcd60e51b815260040161061190611dc6565b60008381526005602052604090206006600a82015460ff166006811115610b5657610b56611a58565b14610ba35760405162461bcd60e51b815260206004820152601a60248201527f52696465206e6f7420696e2044495350555445442073746174650000000000006044820152606401610611565b6000808415610bc9575050600181015460038201546001600160a01b0390911690610c0c565b6002830154600484015460038501546001600160a01b039092169350610bee91611fb5565b9050826004015460026000828254610c069190611fc8565b90915550505b600a8301805460ff191660041790554260078401556040516000906001600160a01b0384169083908381818185875af1925050503d8060008114610c6c576040519150601f19603f3d011682016040523d82523d6000602084013e610c71565b606091505b5050905080610cc25760405162461bcd60e51b815260206004820152601960248201527f5265736f6c7574696f6e207061796d656e74206661696c6564000000000000006044820152606401610611565b604080516001600160a01b0385168152426020820152339189917f91654c3192b2addfcd6b387551723a49e39352c8d5f6d4e5132003dc699fdbad910160405180910390a350505050505050565b610d1861197a565b6000828152600560208181526040928390208351610160810185528154815260018201546001600160a01b039081169382019390935260028201549092169382019390935260038301546060820152600483015460808201529082015460a0820152600682015460c0820152600782015460e082015260088201805491929161010084019190610da790611d8c565b80601f0160208091040260200160405190810160405280929190818152602001828054610dd390611d8c565b8015610e205780601f10610df557610100808354040283529160200191610e20565b820191906000526020600020905b815481529060010190602001808311610e0357829003601f168201915b50505050508152602001600982018054610e3990611d8c565b80601f0160208091040260200160405190810160405280929190818152602001828054610e6590611d8c565b8015610eb25780601f10610e8757610100808354040283529160200191610eb2565b820191906000526020600020905b815481529060010190602001808311610e9557829003601f168201915b5050509183525050600a82015460209091019060ff166006811115610ed957610ed9611a58565b6006811115610eea57610eea611a58565b90525092915050565b80600080828152600560205260409020600a015460ff166006811115610f1b57610f1b611a58565b03610f385760405162461bcd60e51b815260040161061190611dc6565b60008281526005602052604090206002015482906001600160a01b03163314610f9e5760405162461bcd60e51b815260206004820152601860248201527727b7363c903a34329030b9b9b4b3b732b210323934bb32b960411b6044820152606401610611565b60008381526005602052604090206003600a82015460ff166006811115610fc757610fc7611a58565b146110145760405162461bcd60e51b815260206004820152601960248201527f52696465206e6f7420696e2053544152544544207374617465000000000000006044820152606401610611565b426007820155600a8101805460ff19166004908117909155810154600382015460009161104091611fb5565b60028301546040519192506000916001600160a01b039091169083908381818185875af1925050503d8060008114611094576040519150601f19603f3d011682016040523d82523d6000602084013e611099565b606091505b50509050806110e25760405162461bcd60e51b8152602060048201526015602482015274111c9a5d995c881c185e5b595b9d0819985a5b1959605a1b6044820152606401610611565b8260040154600260008282546110f89190611fc8565b90915550506004805490600061110d83611f6f565b90915550506002830154600484015460408051858152602081019290925242908201526001600160a01b039091169087907f289ab742e1af15e1c341794e5c39a88f47d0f57ffe48ec7cc077d4315a0c87d890606001610aae565b6000546001600160a01b031633146111925760405162461bcd60e51b815260040161061190611f88565b60148111156111db5760405162461bcd60e51b81526020600482015260156024820152744665652063616e6e6f74206578636565642032302560581b6044820152606401610611565b600155565b600760205281600052604060002081815481106105b757600080fd5b80600080828152600560205260409020600a015460ff16600681111561122457611224611a58565b036112415760405162461bcd60e51b815260040161061190611dc6565b600082815260056020526040902060018101546001600160a01b0316331480611276575060028101546001600160a01b031633145b6112cc5760405162461bcd60e51b815260206004820152602160248201527f4f6e6c792072696465207061727469636970616e74732063616e2063616e63656044820152601b60fa1b6064820152608401610611565b6001600a82015460ff1660068111156112e7576112e7611a58565b148061130b57506002600a82015460ff16600681111561130957611309611a58565b145b61136c5760405162461bcd60e51b815260206004820152602c60248201527f43616e6e6f742063616e63656c206120737461727465642072696465202d207260448201526b61697365206469737075746560a01b6064820152608401610611565b6003810154600a8201805460ff1916600517905560018201546040516000916001600160a01b03169083908381818185875af1925050503d80600081146113cf576040519150601f19603f3d011682016040523d82523d6000602084013e6113d4565b606091505b50509050806114155760405162461bcd60e51b815260206004820152600d60248201526c1499599d5b990819985a5b1959609a1b6044820152606401610611565b60408051838152426020820152339187917f8116428e07d70fbe19b9e7a4dde9600c2ec8b9d319e824a7f881764ada4ce995910160405180910390a35050505050565b6000546001600160a01b031633146114825760405162461bcd60e51b815260040161061190611f88565b600254806114c85760405162461bcd60e51b81526020600482015260136024820152724e6f7468696e6720746f20776974686472617760681b6044820152606401610611565b6000600281905580546040516001600160a01b039091169083908381818185875af1925050503d806000811461151a576040519150601f19603f3d011682016040523d82523d6000602084013e61151f565b606091505b50509050806115645760405162461bcd60e51b815260206004820152601160248201527015da5d1a191c985dd85b0819985a5b1959607a1b6044820152606401610611565b5050565b6001600160a01b0381166000908152600760209081526040918290208054835181840281018401909452808452606093928301828280156115c857602002820191906000526020600020905b8154815260200190600101908083116115b4575b50505050509050919050565b80600080828152600560205260409020600a015460ff1660068111156115fc576115fc611a58565b036116195760405162461bcd60e51b815260040161061190611dc6565b600082815260056020526040902060018101546001600160a01b031633148061164e575060028101546001600160a01b031633145b6116935760405162461bcd60e51b81526020600482015260166024820152754f6e6c792072696465207061727469636970616e747360501b6044820152606401610611565b6003600a82015460ff1660068111156116ae576116ae611a58565b14806116d257506002600a82015460ff1660068111156116d0576116d0611a58565b145b61171e5760405162461bcd60e51b815260206004820152601d60248201527f43616e206f6e6c792064697370757465206163746976652072696465730000006044820152606401610611565b600a8101805460ff19166006179055604051428152339084907fc7d1b2cd4cf76e3b360b72761ab309e4fd1e3f25f3679f82e66410d221992ce5906020015b60405180910390a3505050565b80600080828152600560205260409020600a015460ff16600681111561179257611792611a58565b036117af5760405162461bcd60e51b815260040161061190611dc6565b60008281526005602052604090206001600a82015460ff1660068111156117d8576117d8611a58565b146118255760405162461bcd60e51b815260206004820152601960248201527f52696465206e6f7420696e2043524541544544207374617465000000000000006044820152606401610611565b60018101546001600160a01b0316330361188c5760405162461bcd60e51b815260206004820152602260248201527f52696465722063616e6e6f7420616363657074207468656972206f776e207269604482015261646560f01b6064820152608401610611565b600280820180546001600160a01b03191633179055426006830155600a8201805460ff19166001830217905550336000818152600760209081526040808320805460018101825590845291909220018590555184907fabb46bd62f4564ccf9652d1ef8df7dbee7921953290e8651d30b2845d4285e7e9061175d9042815260200190565b6001600160a01b0381166000908152600660209081526040918290208054835181840281018401909452808452606093928301828280156115c857602002820191906000526020600020908154815260200190600101908083116115b45750505050509050919050565b6040518061016001604052806000801916815260200160006001600160a01b0316815260200160006001600160a01b0316815260200160008152602001600081526020016000815260200160008152602001600081526020016060815260200160608152602001600060068111156119f4576119f4611a58565b905290565b600060208284031215611a0b57600080fd5b5035919050565b6000815180845260005b81811015611a3857602081850181015186830182015201611a1c565b506000602082860101526020601f19601f83011685010191505092915050565b634e487b7160e01b600052602160045260246000fd5b60078110611a8c57634e487b7160e01b600052602160045260246000fd5b9052565b60006101608d835260018060a01b03808e166020850152808d166040850152508a60608401528960808401528860a08401528760c08401528660e084015280610100840152611ae181840187611a12565b9050828103610120840152611af68186611a12565b915050611b07610140830184611a6e565b9c9b505050505050505050505050565b80356001600160a01b0381168114611b2e57600080fd5b919050565b60008060408385031215611b4657600080fd5b611b4f83611b17565b946020939093013593505050565b60008083601f840112611b6f57600080fd5b50813567ffffffffffffffff811115611b8757600080fd5b602083019150836020828501011115611b9f57600080fd5b9250929050565b600080600080600060608688031215611bbe57600080fd5b85359450602086013567ffffffffffffffff80821115611bdd57600080fd5b611be989838a01611b5d565b90965094506040880135915080821115611c0257600080fd5b50611c0f88828901611b5d565b969995985093965092949392505050565b60008060408385031215611c3357600080fd5b8235915060208301358015158114611c4a57600080fd5b809150509250929050565b602081528151602082015260006020830151611c7c60408401826001600160a01b03169052565b5060408301516001600160a01b03811660608401525060608301516080830152608083015160a083015260a083015160c083015260c083015160e083015260e08301516101008181850152808501519150506101606101208181860152611ce7610180860184611a12565b9250808601519050610140601f198685030181870152611d078483611a12565b935080870151915050611d1c82860182611a6e565b5090949350505050565b600060208284031215611d3857600080fd5b611d4182611b17565b9392505050565b6020808252825182820181905260009190848201906040850190845b81811015611d8057835183529284019291840191600101611d64565b50909695505050505050565b600181811c90821680611da057607f821691505b602082108103611dc057634e487b7160e01b600052602260045260246000fd5b50919050565b602080825260139082015272149a591948191bd95cc81b9bdd08195e1a5cdd606a1b604082015260600190565b634e487b7160e01b600052601160045260246000fd5b8082028115828204841417611e2057611e20611df3565b92915050565b600082611e4357634e487b7160e01b600052601260045260246000fd5b500490565b634e487b7160e01b600052604160045260246000fd5b601f821115611eaa576000816000526020600020601f850160051c81016020861015611e875750805b601f850160051c820191505b81811015611ea657828155600101611e93565b5050505b505050565b815167ffffffffffffffff811115611ec957611ec9611e48565b611edd81611ed78454611d8c565b84611e5e565b602080601f831160018114611f125760008415611efa5750858301515b600019600386901b1c1916600185901b178555611ea6565b600085815260208120601f198616915b82811015611f4157888601518255948401946001909101908401611f22565b5085821015611f5f5787850151600019600388901b60f8161c191681555b5050505050600190811b01905550565b600060018201611f8157611f81611df3565b5060010190565b60208082526013908201527227b7363c9031b7b73a3930b1ba1037bbb732b960691b604082015260600190565b81810381811115611e2057611e20611df3565b80820180821115611e2057611e20611df356fea26469706673582212201ff69b89f23bf4e3ba1d2126406786163b248d89b373aef07d0b2728d6bd909464736f6c63430008180033",
  "linkReferences": {},
  "deployedLinkReferences": {}
}